:020000040800F2
:10000000005000208D120008BD110008C511000825
:10001000CD110008D5110008DD1100080000000016
:10002000000000000000000000000000E5110008D2
:10003000F111000800000000FD110008091200087D
:10004000D5120008D5120008D5120008D5120008F4
:10005000D5120008D5120008D5120008D5120008E4
:10006000D5120008D5120008D5120008D5120008D4
:10007000D5120008D5120008D5120008D5120008C4
:10008000D5120008D5120008D5120008D5120008B4
:10009000D5120008D5120008D5120008D5120008A4
:1000A000D5120008D5120008D5120008D512000894
:1000B000D5120008D5120008D5120008D512000884
:1000C000D5120008D5120008D5120008D512000874
:1000D000D5120008D5120008D5120008D512000864
:1000E000D5120008D5120008D51200080000000043
:1000F0000000000000000000000000000000000000
:0C01000000000000000000005FF808F1A3
:10010C0010B5054C237833B9044B13B10448AFF345
:10011C0000800123237010BD680000200000000047
:10012C005C40000808B5034B1BB103490348AFF30F
:10013C00008008BD000000006C0000205C4000083E
:10014C0080F0004002E000BF81F0004142001FBF80
:10015C005FEA410392EA030F7FEA226C7FEA236C89
:10016C006AD04FEA1262D2EB1363C1BFD21841407E
:10017C0048404140B8BF5B42192B88BF704710F014
:10018C00004F40F4000020F07F4018BF404211F0B7
:10019C00004F41F4000121F07F4118BF494292EA1F
:1001AC00030F3FD0A2F1010241FA03FC10EB0C004B
:1001BC00C3F1200301FA03F100F0004302D54942D8
:1001CC0060EB4000B0F5000F13D3B0F1807F06D385
:1001DC0040084FEA310102F10102FE2A51D2B1F17D
:1001EC00004F40EBC25008BF20F0010040EA030072
:1001FC007047490040EB0000013A28BFB0F5000FF2
:10020C00EDD2B0FA80FCACF1080CB2EB0C0200FAA7
:10021C000CF0AABF00EBC25052421843BCBFD040F6
:10022C001843704792F0000F81F4000106BF80F470
:10023C0000000132013BB5E74FEA41037FEA226C33
:10024C0018BF7FEA236C21D092EA030F04D092F0FE
:10025C00000F08BF0846704790EA010F1CBF002032
:10026C00704712F07F4F04D1400028BF40F000408F
:10027C00704712F100723CBF00F50000704700F0AF
:10028C00004343F0FE4040F4000070477FEA2262D6
:10029C0016BF08467FEA23630146420206BF5FEAA7
:1002AC00412390EA010F40F4800070474FF00003A7
:1002BC0004E000BF10F0004348BF40425FEA000C6E
:1002CC0008BF704743F0964301464FF000001CE016
:1002DC0050EA010208BF70474FF000030AE000BF6C
:1002EC0050EA010208BF704711F0004302D54042AA
:1002FC0061EB41015FEA010C02BF8446014600201C
:10030C0043F0B64308BFA3F18053A3F50003BCFA36
:10031C008CF2083AA3EBC25310DB01FA02FC6344E3
:10032C0000FA02FCC2F12002BCF1004F20FA02F2EA
:10033C0043EB020008BF20F00100704702F12002DD
:10034C0001FA02FCC2F1200250EA4C0021FA02F23E
:10035C0043EB020008BF20EADC7070474FF0FF0C43
:10036C001CEAD0521EBF1CEAD15392EA0C0F93EA3E
:10037C000C0F6FD01A4480EA010C400218BF5FEAE0
:10038C0041211ED04FF0006343EA501043EA511153
:10039C00A0FB01310CF00040B1F5000F3EBF49004D
:1003AC0041EAD3715B0040EA010062F17F02FD2A51
:1003BC001DD8B3F1004F40EBC25008BF20F0010034
:1003CC00704790F0000F0CF0004C08BF49024CEA4B
:1003DC00502040EA51207F3AC2BFD2F1FF0340EADD
:1003EC00C250704740F400004FF00003013A5DDC4E
:1003FC0012F1190FDCBF00F000407047C2F100028F
:10040C00410021FA02F1C2F1200200FA02FC5FEA7B
:10041C00310040F1000053EA4C0308BF20EADC70C5
:10042C00704792F0000F00F0004C02BF400010F437
:10043C00000F013AF9D040EA0C0093F0000F01F0E4
:10044C00004C02BF490011F4000F013BF9D041EA06
:10045C000C018FE70CEAD15392EA0C0F18BF93EA08
:10046C000C0F0AD030F0004C18BF31F0004CD8D132
:10047C0080EA010000F00040704790F0000F17BFB9
:10048C0090F0004F084691F0000F91F0004F14D0FF
:10049C0092EA0C0F01D142020FD193EA0C0F03D157
:1004AC004B0218BF084608D180EA010000F000405A
:1004BC0040F0FE4040F40000704740F0FE4040F435
:1004CC00400070474FF0FF0C1CEAD0521EBF1CEAD4
:1004DC00D15392EA0C0F93EA0C0F69D0A2EB0302F2
:1004EC0080EA010C49024FEA402037D04FF080538C
:1004FC0043EA111143EA10130CF000408B4238BF51
:10050C005B0042F17D024FF4000C8B4224BF5B1A5E
:10051C0040EA0C00B3EB510F24BFA3EB510340EAAC
:10052C005C00B3EB910F24BFA3EB910340EA9C005A
:10053C00B3EBD10F24BFA3EBD10340EADC001B01CA
:10054C0018BF5FEA1C1CE0D1FD2A3FF650AF8B426E
:10055C0040EBC25008BF20F0010070470CF0004C7B
:10056C004CEA50207F32C2BFD2F1FF0340EAC250A6
:10057C00704740F400004FF00003013A37E792F067
:10058C00000F00F0004C02BF400010F4000F013AC5
:10059C00F9D040EA0C0093F0000F01F0004C02BFC0
:1005AC00490011F4000F013BF9D041EA0C0195E729
:1005BC000CEAD15392EA0C0F08D142027FF47DAFC2
:1005CC0093EA0C0F7FF470AF084676E793EA0C0FB2
:1005DC0004D14B023FF44CAF08466EE730F0004CB0
:1005EC0018BF31F0004CCAD130F000427FF45CAF40
:1005FC0031F000437FF43CAF5FE700BF4FEA4002AD
:10060C00B2F1FE4F0FD34FF09E03B3EB12620DD934
:10061C004FEA002343F0004310F0004F23FA02F09E
:10062C0018BF404270474FF00000704712F1610F45
:10063C0001D1420205D110F0004008BF6FF000401C
:10064C0070474FF00000704780B586B002AF7860FD
:10065C000B46FB70FB7823F00F03FB73FB781B013D
:10066C00BB73FB7B43F00C03DBB23B72FB7B43F0B5
:10067C000803DBB27B72BB7B43F00C03DBB2BB72B7
:10068C00BB7B43F00803DBB2FB727B6818687B68AA
:10069C001B79194607F1080264230093042301F027
:1006AC0077FA00BF1037BD4680BD80B586B002AF6B
:1006BC0078600B46FB70FB7823F00F03FB73FB7821
:1006CC001B01BB73FB7B43F00D03DBB23B72FB7B6B
:1006DC0043F00903DBB27B72BB7B43F00D03DBB24F
:1006EC00BB72BB7B43F00903DBB2FB727B681868FF
:1006FC007B681B79194607F10802642300930423D5
:10070C0001F046FA00BF1037BD4680BD80B584B0FD
:10071C0000AF786080217868FFF796FF0023FB60BC
:10072C0006E020217868FFF7C0FFFB680133FB600F
:10073C00FB684F2BF5DD00BF00BF1037BD4680BDF9
:10074C0080B586B000AFF860B9607A607B68032B27
:10075C0024D801A252F823F0750700087F0700087F
:10076C008907000893070008BB68DBB2803BFB7568
:10077C000EE0BB68DBB2403BFB7509E0BB68DBB24B
:10078C006C3BFB7504E0BB68DBB22C3BFB7500BF1C
:10079C00FB7D1946F868FFF757FF00E000BF1837DC
:1007AC00BD4680BD80B582B000AF7860322000F0CD
:1007BC00EFFD30217868FFF747FF052000F0E8FDDA
:1007CC0030217868FFF740FF012000F0E1FD302177
:1007DC007868FFF739FF0A2000F0DAFD20217868ED
:1007EC00FFF732FF0A2000F0D3FD28217868FFF7CD
:1007FC002BFF012000F0CCFD08217868FFF724FFC7
:10080C00012000F0C5FD01217868FFF71DFF0220D3
:10081C0000F0BEFD06217868FFF716FF012000F0FE
:10082C00B7FD0C217868FFF70FFF00BF0837BD46F6
:10083C0080BD80B582B000AF7860396007E03B685E
:10084C005A1C3A601B7819467868FFF72EFF3B68F4
:10085C001B78002BF3D100BF00BF0837BD4680BD0D
:10086C0080B483B000AF0346FB80084B1B680022AA
:10087C005A6200BF054B1B685A6AFB889A42F9D32F
:10088C0000BF00BF0C37BD4680BC70473401002050
:10089C0080B584B000AF0023FB6000F06FFD786082
:1008AC0008E000F06BFD02467B68D31AC82B01D917
:1008BC0000234BE04FF48071264800F0F5FF03460F
:1008CC00012BEED00023FB7225E001224FF40071C6
:1008DC00204801F000F80120FFF7C2FFFB685B0025
:1008EC00FB6000224FF400711A4800F0F4FF012065
:1008FC00FFF7B6FF4FF48071164800F0D5FF0346A2
:10090C00012B02D1FB680133FB6097F90B30DBB292
:10091C000133DBB2FB7297F90B30172BD5DDFB687B
:10092C0083F40003FB6001224FF40071094800F0CE
:10093C00D2FF0120FFF794FF00224FF4007105480D
:10094C0000F0C9FF0120FFF78BFFFB68184610373A
:10095C00BD4680BD000C014080B586B000AF0023C1
:10096C007B613223FB6000237B8208E0FFF790FF62
:10097C0002467B6913447B617B8A01337B827B8AD1
:10098C00FA689A42F2DC7A69FB6892FBF3F3BB607B
:10099C00104B1B68104A126811461846FFF792FD5F
:1009AC0003467B60BA680D4B1B68D31A1846FFF7D9
:1009BC0081FC034679681846FFF7D0FC03461846BD
:1009CC00FFF71CFE03463B603B6818461837BD46D4
:1009DC0080BD00BF040000200800002000000020A3
:1009EC0080B590B002AF00F071FC00F0D7F800F0C9
:1009FC00C3F900F019F900F045F900F071F9584B02
:100A0C00584A1A60564B4E221A715548FFF7CAFEC7
:100A1C005348FFF77BFE54495148FFF70AFF012268
:100A2C0000214F48FFF78CFE50494D48FFF701FF5E
:100A3C0000F0DBFA4E4802F0E7FB01224FF40071A4
:100A4C004C4800F048FF0A2000F0A2FC00224FF4B2
:100A5C000071484800F03FFF0A2000F099FC00F0BC
:100A6C00E3F9FFF779FF0346434A1360424B1B68D7
:100A7C00424A1360424B1A79424B1A7000F0D4F977
:100A8C00FFF76AFF78633E4B1A793E4B1B789A420C
:100A9C0007D03D4B4FF000021A60394B1A79394B95
:100AAC001A70364B1A687B6BD31A3B633B6B002B6B
:100ABC0013DD386BFFF7FEFB034634491846FFF78E
:100ACC0001FD03461A46304B1B6819461046FFF7CA
:100ADC003DFB03461A462C4B1A60284A7B6B13606D
:100AEC007B6B2B4A82FB03129211DB17D31AFB622E
:100AFC00254B1B681846FFF781FD0346BB6218485F
:100B0C00FFF704FE1E4B9B781A461D4B5B7819466B
:100B1C001B4B1B7807F1140000930B461D4902F088
:100B2C00E7FD3846BB6AFA6A1B4902F0E1FD002278
:100B3C0000210B48FFF704FE07F11403194608487F
:100B4C00FFF777FE012200210548FFF7F9FD3B4630
:100B5C0019460348FFF76DFE642000F019FC8DE781
:100B6C007C0100208C0000207440000884400008A8
:100B7C0034010020000C0140900100208401002071
:100B8C00840000208C0100208801002000007A44A1
:100B9C00D34D621094400008A440000880B590B07A
:100BAC0000AF07F1180328220021184602F0C2FDFD
:100BBC003B1D00221A605A609A60DA601A610123A8
:100BCC00BB614FF48033FB6100233B620123BB62AA
:100BDC0002237B634FF48033BB634FF4E013FB635E
:100BEC0007F11803184601F0C3FE0346002B01D091
:100BFC0000F01EFA0F237B600223BB600023FB6016
:100C0C004FF480633B6100237B613B1D022118463E
:100C1C0002F030F90346002B01D000F009FA00BFB6
:100C2C004037BD4680BD000080B500AF124B134A63
:100C3C001A60114B124A5A600F4B00229A600E4BED
:100C4C000022DA600C4B4FF480421A610A4B0022EE
:100C5C005A61094B00229A61074B0022DA61064B5C
:100C6C0000221A62044800F04FFE0346002B01D00C
:100C7C0000F0DEF900BF80BD8C0000200054004065
:100C8C00801A060080B500AF124B134A1A60114B44
:100C9C00124A5A600F4B00229A600E4B0022DA6007
:100CAC000C4B4FF480421A610A4B00225A61094BDB
:100CBC0000229A61074B0022DA61064B00221A626D
:100CCC00044800F021FE0346002B01D000F0B0F9DF
:100CDC0000BF80BDE000002000580040801A0600D4
:100CEC0080B586B000AF07F1080300221A605A6085
:100CFC009A60DA603B4600221A605A601D4B4FF036
:100D0C0080421A601B4B47225A601A4B00229A6091
:100D1C00184B4FF6FF72DA60164B00221A61154B16
:100D2C0000229A61134802F01FFA0346002B01D0EF
:100D3C0000F07EF94FF48053BB6007F108031946AD
:100D4C000C4802F0ABFA0346002B01D000F070F90E
:100D5C0000233B6000237B603B461946054802F0AC
:100D6C0069FC0346002B01D000F062F900BF183774
:100D7C00BD4680BD3401002080B588B000AF07F1BE
:100D8C00100300221A605A609A60DA60244B9B6947
:100D9C00234A43F020039361214B9B6903F020030A
:100DAC00FB60FB681E4B9B691D4A43F00803936173
:100DBC001B4B9B6903F00803BB60BB68184B9B691A
:100DCC00174A43F004039361154B9B6903F004032A
:100DDC007B607B6800224FF40071124800F07BFDB1
:100DEC004FF480733B6100237B610023BB6107F1EF
:100DFC00100319460B4800F0D3FB4FF400733B6112
:100E0C0001237B610023BB610223FB6107F110030B
:100E1C001946044800F0C4FB00BF2037BD4680BD16
:100E2C0000100240000C014080B582B000AF0020E1
:100E3C0000F084F8034603F07F03DBB2184600F0A1
:100E4C00DFF803461A462E4B1A70012000F076F894
:100E5C000346184600F0D4F803461A46284B5A703D
:100E6C00022000F06BF8034603F03F03DBB2184698
:100E7C0000F0C6F803461A46214B9A70032000F086
:100E8C005DF80346184600F0BBF803461A461C4BA7
:100E9C00DA70042000F052F80346184600F0B0F85F
:100EAC0003461A46164B1A71052000F047F8034604
:100EBC00184600F0A5F803461A46114B5A7110203B
:100ECC0000F03CF803461A46920013441A4691006F
:100EDC001A460B4613449B00FB80062000F02EF8AC
:100EEC000346184600F08CF803461A46FB88134458
:100EFC009AB2034BDA8000BF0837BD4680BD00BFF5
:100F0C008400002080B586B002AF03460A46FB7110
:100F1C001346BB71FB793B73BB797B7307F10C02F6
:100F2C004FF47A7300930223D021034800F030FE73
:100F3C0000BF1037BD4680BDE000002080B586B0F4
:100F4C0002AF0346FB71FA1D4FF47A730093012331
:100F5C00D021094800F01CFE07F10F024FF47A7300
:100F6C0000930123D021044800F010FFFB7B1846AE
:100F7C001037BD4680BD00BFE000002080B584B0B6
:100F8C0000AF0346FB71FB79002B01D0802300E0FE
:100F9C000023FB730020FFF7D1FF03465BB203F085
:100FAC007F035AB297F90F3013435BB2DBB2194689
:100FBC000020FFF7A7FF00BF1037BD4680BD80B5EE
:100FCC0082B000AF03460A46FB711346BB71FB7936
:100FDC0019460820FFF796FFBB7919460920FFF741
:100FEC0091FF00BF0837BD4680BD80B500AF002023
:100FFC00FFF7C4FF00210820FFF7E1FF00BF80BD11
:10100C0080B483B000AF0346FB71FB791B09DBB2E4
:10101C001A46920013445B00DAB2FB7903F00F031B
:10102C00DBB21344DBB218460C37BD4680BC7047AC
:10103C0080B400AF72B600BF00BFFDE780B485B0CE
:10104C0000AF154B9B69144A43F001039361124B9B
:10105C009B6903F00103BB60BB680F4BDB690E4A55
:10106C0043F08053D3610C4BDB6903F080537B60FE
:10107C007B680A4B5B68FB60FB6823F0E063FB60FA
:10108C00FB6843F00073FB60044AFB68536000BFCD
:10109C001437BD4680BC7047001002400000014070
:1010AC0080B58AB000AF786007F1180300221A608F
:1010BC005A609A60DA607B681B682B4A934224D191
:1010CC002A4B9B69294A43F008039361274B9B6980
:1010DC0003F008037B617B69C023BB611223FB61B6
:1010EC0003237B6207F118031946214800F058FAD4
:1010FC001E4BDB691D4A43F40013D3611B4BDB69A8
:10110C0003F400133B613B6929E07B681B68194AB7
:10111C00934224D1154B9B69144A43F00803936105
:10112C00124B9B6903F00803FB60FB684FF44063B0
:10113C00BB611223FB6103237B6207F11803194681
:10114C000B4800F02DFA094BDB69084A43F4800385
:10115C00D361064BDB6903F48003BB60BB6800BF43
:10116C002837BD4680BD00BF00540040001002402F
:10117C00000C01400058004080B485B000AF78608E
:10118C007B681B68B3F1804F0BD1084BDB69074AB6
:10119C0043F00103D361054BDB6903F00103FB60F2
:1011AC00FB6800BF1437BD4680BC7047001002407E
:1011BC0080B400AF00BFFDE780B400AF00BFFDE717
:1011CC0080B400AF00BFFDE780B400AF00BFFDE707
:1011DC0080B400AF00BFFDE780B400AF00BFBD46D8
:1011EC0080BC704780B400AF00BFBD4680BC704768
:1011FC0080B400AF00BFBD4680BC704780B500AF67
:10120C0000F0AAF800BF80BD80B586B000AF786052
:10121C00144A154BD31A7B617B693B61134B1B68DA
:10122C00002B02D1114B124A1A60104B1A687B68C2
:10123C0013443A699A4207D202F084FA03460C220C
:10124C001A604FF0FF3309E0084B1B68FB60074B3B
:10125C001A687B681344054A1360FB6818461837F4
:10126C00BD4680BD00500020000400009401002009
:10127C00E802002080B400AF00BFBD4680BC7047C0
:10128C00FFF7F8FF0B480C490C4A002302E0D45836
:10129C00C4500433C4188C42F9D3094A094C0023B6
:1012AC0001E013600432A242FBD302F051FAFFF7C3
:1012BC0097FB704700000020680000201C410008CC
:1012CC0068000020E4020020FEE7000080B500AFBB
:1012DC00084B1B68074A43F010031360032000F00F
:1012EC002BF90F2000F008F8FFF7A8FE0023184692
:1012FC0080BD00BF0020024080B582B000AF786096
:10130C00124B1A68124B1B7819464FF47A73B3FBC5
:10131C00F1F3B2FBF3F3184600F035F90346002B5A
:10132C0001D001230EE07B680F2B0AD800227968CC
:10133C004FF0FF3000F00BF9064A7B681360002376
:10134C0000E0012318460837BD4680BD0C00002084
:10135C00140000201000002080B400AF054B1B7857
:10136C001A46054B1B681344034A136000BFBD4665
:10137C0080BC7047140000209801002080B400AF9E
:10138C00024B1B681846BD4680BC70479801002074
:10139C0080B584B000AF7860FFF7F0FFB8607B6871
:1013AC00FB60FB68B3F1FF3F05D00A4B1B781A4674
:1013BC00FB681344FB6000BFFFF7E0FF0246BB680D
:1013CC00D31AFA689A42F7D800BF00BF1037BD464F
:1013DC0080BD00BF1400002080B485B000AF7860E1
:1013EC007B6803F00703FB600C4BDB68BB60BA68DF
:1013FC004FF6FF031340BB60FB681A02BB68134334
:10140C0043F0BF6343F40033BB60044ABB68D36052
:10141C0000BF1437BD4680BC704700BF00ED00E034
:10142C0080B400AF044BDB681B0A03F007031846BB
:10143C00BD4680BC704700BF00ED00E080B483B0B7
:10144C0000AF03463960FB7197F90730002B0ADBBC
:10145C003B68DAB20C4997F907301201D2B20B444F
:10146C0083F800230AE03B68DAB20849FB7903F001
:10147C000F03043B1201D2B20B441A7600BF0C3797
:10148C00BD4680BC704700BF00E100E000ED00E00D
:10149C0080B489B000AFF860B9607A60FB6803F083
:1014AC000703FB61FB69C3F10703042B28BF04236B
:1014BC00BB61FB690433062B02D9FB69033B00E0DB
:1014CC0000237B614FF0FF32BB6902FA03F3DA436E
:1014DC00BB681A407B699A404FF0FF317B6901FA77
:1014EC0003F3D9437B680B40134318462437BD469E
:1014FC0080BC704780B582B000AF78607B68013BE0
:10150C00B3F1807F01D301230FE00A4A7B68013BD2
:10151C0053600F214FF0FF30FFF790FF054B002277
:10152C009A60044B07221A60002318460837BD4600
:10153C0080BD00BF10E000E080B582B000AF7860E5
:10154C007868FFF749FF00BF0837BD4680BD80B5FE
:10155C0086B000AF0346B9607A60FB7300237B61F1
:10156C00FFF75EFF78617A68B9687869FFF790FFDA
:10157C00024697F90F3011461846FFF75FFF00BF80
:10158C001837BD4680BD80B582B000AF78607868F2
:10159C00FFF7B0FF034618460837BD4680BD000074
:1015AC0080B48BB000AF7860396000237B6200237D
:1015BC003B6269E101227B6A02FA03F3FB613B683F
:1015CC001B68FA691340BB61BA69FB699A4240F027
:1015DC0058813B685B689A4A93425ED0984A934222
:1015EC0075D8984A934258D0964A93426FD8964AE7
:1015FC00934252D0944A934269D8944A93424CD025
:10160C00924A934263D8924A934246D0904A93426C
:10161C005DD8122B2AD8122B59D801A252F823F0DC
:10162C00A71600088116000893160008D5160008A6
:10163C00DB160008DB160008DB160008DB160008BA
:10164C00DB160008DB160008DB160008DB160008AA
:10165C00DB160008DB160008DB160008DB1600089A
:10166C00DB160008891600089D160008794A93427B
:10167C0013D02CE03B68DB683B6229E03B68DB68FD
:10168C0004333B6224E03B68DB6808333B621FE0B9
:10169C003B68DB680C333B621AE03B689B68002BB1
:1016AC0002D104233B6213E03B689B68012B05D1FC
:1016BC0008233B627B68FA691A6109E008233B62E4
:1016CC007B68FA695A6103E000233B6200E000BFCB
:1016DC00BB69FF2B01D87B6801E07B6804337B611D
:1016EC00BB69FF2B02D87B6A9B0002E07B6A083B3C
:1016FC009B003B617B691A680F213B6901FA03F37C
:10170C00DB431A40396A3B6901FA03F31A437B69DC
:10171C001A603B685B6803F08053002B00F0B180CB
:10172C004D4B9B694C4A43F0010393614A4B9B69B7
:10173C0003F00103BB60BB68484A7B6A9B08023319
:10174C0052F82330FB607B6A03F003039B000F22EB
:10175C0002FA03F3DB43FA681340FB607B68404AF0
:10176C00934213D07B683F4A93420DD07B683E4A2C
:10177C00934207D07B683D4A934201D1032306E094
:10178C00042304E0022302E0012300E000237A6A30
:10179C0002F0030292009340FA681343FB602F4956
:1017AC007B6A9B080233FA6841F823203B685B682C
:1017BC0003F48013002B06D02D4B9A682C49BB697F
:1017CC0013438B6006E02A4B9A68BB69DB432849BC
:1017DC0013408B603B685B6803F40013002B06D04E
:1017EC00234BDA682249BB691343CB6006E0204BDC
:1017FC00DA68BB69DB431E491340CB603B685B680E
:10180C0003F40033002B06D0194B5A681849BB69F6
:10181C0013434B6006E0164B5A68BB69DB43144913
:10182C0013404B603B685B6803F48033002B21D082
:10183C000F4B1A680E49BB6913430B6021E000BFC4
:10184C0000003210000031100000221000002110A6
:10185C0000001210000011100010024000000140A6
:10186C0000080140000C0140001001400014014030
:10187C00000401400B4B1A68BB69DB430949134058
:10188C000B607B6A01337B623B681A687B6A22FAC5
:10189C0003F3002B7FF48EAE00BF00BF2C37BD4688
:1018AC0080BC70470004014080B485B000AF786004
:1018BC000B467B807B689A687B881340002B02D098
:1018CC000123FB7301E00023FB73FB7B18461437E9
:1018DC00BD4680BC704780B483B000AF78600B46C7
:1018EC007B8013467B707B78002B03D07A887B68D7
:1018FC001A6103E07B881A047B681A6100BF0C37FD
:10190C00BD4680BC7047000080B584B000AF7860E5
:10191C007B68002B01D101232BE17B6893F83D30D0
:10192C00DBB2002B06D17B68002283F83C20786860
:10193C00FFF7B6FB7B68242283F83D207B681B688D
:10194C001A687B681B6822F001021A607B681B68AE
:10195C001A687B681B6842F400421A607B681B683B
:10196C001A687B681B6822F400421A6001F0CAFBFB
:10197C00F8607B685B68814A934207D8FB68804AB1
:10198C00934294BF01230023DBB206E0FB687D4A3F
:10199C00934294BF01230023DBB2002B01D001231F
:1019AC00E7E0FB68784AA2FB03239B0CBB607B68D7
:1019BC001B685B6823F03F017B681B68BA680A43AD
:1019CC005A607B681B681B6A23F03F017B685B686D
:1019DC006A4A934202D8BB68013309E0BB684FF4F2
:1019EC00967202FB03F3694AA2FB03239B090133A2
:1019FC007A6812680B4313627B681B68DB6923F4FB
:101A0C004F4222F0FF027B685B685C498B4219D81D
:101A1C00FB68591E7B685B685B00B1FBF3F3591CD8
:101A2C0040F6FC730B40002B0AD0FB68591E7B68F8
:101A3C005B685B00B1FBF3F30133C3F30B0351E0C1
:101A4C0004234FE07B689B68002B11D1FB68581E68
:101A5C007B6859680B465B000B44B0FBF3F3013316
:101A6C00C3F30B03002B0CBF01230023DBB212E0EA
:101A7C00FB68581E7B6859680B469B000B44990009
:101A8C000B44B0FBF3F30133C3F30B03002B0CBF7C
:101A9C0001230023DBB2002B01D0012322E07B6861
:101AAC009B68002B0ED1FB68581E7B6859680B464F
:101ABC005B000B44B0FBF3F30133C3F30B0343F4B0
:101ACC0000430FE0FB68581E7B6859680B469B006F
:101ADC000B4499000B44B0FBF3F30133C3F30B033A
:101AEC0043F44043796809681343CB617B681B68F6
:101AFC001B6823F0C0017B68DA697B681B6A1A4398
:101B0C007B681B680A431A607B681B689B6823F41C
:101B1C00034323F0FF037A6811697A68D268114392
:101B2C007A6812680B4393607B681B68DB6823F050
:101B3C00FF017B685A697B689B691A437B681B6849
:101B4C000A43DA607B681B681A687B681B6842F082
:101B5C0001021A607B6800221A647B68202283F8D9
:101B6C003D207B6800221A637B68002283F83E20AC
:101B7C00002318461037BD4680BD00BFA08601006B
:101B8C007F841E00FF083D0083DE1B43D34D621093
:101B9C0080B588B002AFF8607A601A460B467B813C
:101BAC0013463B81FFF7EAFB7861FB6893F83D3005
:101BBC00DBB2202B40F0E0807B69009319230122DB
:101BCC007049F86800F09EFC0346002B01D00223FC
:101BDC00D3E0FB6893F83C30012B01D10223CCE01D
:101BEC00FB68012283F83C20FB681B681B6803F030
:101BFC000103012B07D0FB681B681A68FB681B6884
:101C0C0042F001021A60FB681B681A68FB681B68CB
:101C1C0022F400621A60FB68212283F83D20FB68E5
:101C2C00102283F83E20FB6800221A64FB687A6855
:101C3C005A62FB683A895A85FB685B8D9AB2FB68DD
:101C4C001A85FB68504ADA6279897B693A6AF868C6
:101C5C0000F008FB0346002B01D001238DE000238C
:101C6C003B61FB681B685B693B61FB681B689B699C
:101C7C003B613B6966E07A69396AF86800F05CFDA3
:101C8C000346002B0DD0FB681B6C042B07D1FB68A3
:101C9C001B681A68FB681B6842F400721A60012307
:101CAC006BE0FB685B6A1A78FB681B681A61FB685F
:101CBC005B6A5A1CFB685A62FB685B8D9BB2013BEA
:101CCC009AB2FB685A85FB681B8D013B9AB2FB6884
:101CDC001A85FB681B685B6903F00403042B1BD19A
:101CEC00FB681B8D002B17D0FB685B6A1A78FB68AE
:101CFC001B681A61FB685B6A5A1CFB685A62FB68BA
:101D0C005B8D9BB2013B9AB2FB685A85FB681B8DBD
:101D1C00013B9AB2FB681A857A69396AF86800F057
:101D2C0053FD0346002B0DD0FB681B6C042B07D115
:101D3C00FB681B681A68FB681B6842F400721A6027
:101D4C0001231AE0FB681B8D002B94D1FB681B68E8
:101D5C001A68FB681B6842F400721A60FB68202248
:101D6C0083F83D20FB68002283F83E20FB680022AC
:101D7C0083F83C20002300E0022318461837BD46A8
:101D8C0080BD00BF020010000000FFFF80B58CB0CA
:101D9C0002AFF8607A601A460B467B8113463B8192
:101DAC0000233B62FFF7EAFA7862FB6893F83D3058
:101DBC00DBB2202B40F04B827B6A0093192301226B
:101DCC007F49F86800F09EFB0346002B01D00223EC
:101DDC003EE2FB6893F83C30012B01D1022337E241
:101DEC00FB68012283F83C20FB681B681B6803F02E
:101DFC000103012B07D0FB681B681A68FB681B6882
:101E0C0042F001021A60FB681B681A68FB681B68C9
:101E1C0022F400621A60FB68222283F83D20FB68E2
:101E2C00102283F83E20FB6800221A64FB687A6853
:101E3C005A62FB683A895A85FB685B8D9AB2FB68DB
:101E4C001A85FB685F4ADA6279897B6A3A6BF868B3
:101E5C0000F08AFA0346002B01D00123F8E1FB685D
:101E6C001B8D002B13D10023FB61FB681B685B6986
:101E7C00FB61FB681B689B69FB61FB69FB681B686A
:101E8C001A68FB681B6842F400721A60CCE1FB68AC
:101E9C001B8D012B1ED1FB681B681A68FB681B6825
:101EAC0022F480621A6072B600BF0023BB61FB682B
:101EBC001B685B69BB61FB681B689B69BB61BB6989
:101ECC00FB681B681A68FB681B6842F400721A6096
:101EDC0062B635E0FB681B8D022B1ED1FB681B68BC
:101EEC001A68FB681B6842F400621A6072B600BF85
:101EFC0000237B61FB681B685B697B61FB681B686B
:101F0C009B697B617B69FB681B681A68FB681B68B3
:101F1C0022F480621A6062B612E0FB681B681A68D1
:101F2C00FB681B6842F480621A6000233B61FB680B
:101F3C001B685B693B61FB681B689B693B613B6988
:101F4C0072E1FB681B8D032B00F21F81FB681B8D5C
:101F5C00012B23D17A6A396BF86800F07DFC0346BB
:101F6C00002B01D0012373E1FB681B681A69FB6825
:101F7C005B6AD2B21A70FB685B6A5A1CFB685A62C5
:101F8C00FB681B8D013B9AB2FB681A85FB685B8D65
:101F9C009BB2013B9AB2FB685A8545E1FB681B8DED
:101FAC00022B52D17B6A00933B6B00220649F868E6
:101FBC0000F0A8FA0346002B08D0012348E100BF2B
:101FCC00020010000000FFFF0400010072B600BF09
:101FDC00FB681B681A68FB681B6842F400721A6085
:101FEC00FB681B681A69FB685B6AD2B21A70FB68E3
:101FFC005B6A5A1CFB685A62FB681B8D013B9AB2E8
:10200C00FB681A85FB685B8D9BB2013B9AB2FB683F
:10201C005A8562B600BFFB681B681A69FB685B6A6D
:10202C00D2B21A70FB685B6A5A1CFB685A62FB6876
:10203C001B8D013B9AB2FB681A85FB685B8D9BB2CA
:10204C00013B9AB2FB685A85EEE07B6A00933B6BCE
:10205C0000228149F86800F055FA0346002B01D0A4
:10206C000123F5E0FB681B681A68FB681B6822F407
:10207C0080621A6072B600BFFB681B681A69FB6845
:10208C005B6AD2B21A70FB685B6A5A1CFB685A62B4
:10209C00FB681B8D013B9AB2FB681A85FB685B8D54
:1020AC009BB2013B9AB2FB685A856C4B1B68DB08F0
:1020BC006B4AA2FB03231A0A13469B001344DA0053
:1020CC00D31A3B623B6A013B3B623B6A002B18D143
:1020DC00FB6800221A63FB68202283F83D20FB6812
:1020EC00002283F83E20FB681B6C43F02002FB6847
:1020FC001A6462B600BFFB68002283F83C200123FF
:10210C00A6E0FB681B685B6903F00403042BD9D1C0
:10211C00FB681B681A68FB681B6842F400721A6043
:10212C00FB681B681A69FB685B6AD2B21A70FB68A1
:10213C005B6A5A1CFB685A62FB681B8D013B9AB2A6
:10214C00FB681A85FB685B8D9BB2013B9AB2FB68FE
:10215C005A8562B600BFFB681B681A69FB685B6A2C
:10216C00D2B21A70FB685B6A5A1CFB685A62FB6835
:10217C001B8D013B9AB2FB681A85FB685B8D9BB289
:10218C00013B9AB2FB685A854EE07A6A396BF86863
:10219C0000F062FB0346002B01D0012358E0FB68E2
:1021AC001B681A69FB685B6AD2B21A70FB685B6ABF
:1021BC005A1CFB685A62FB681B8D013B9AB2FB6888
:1021CC001A85FB685B8D9BB2013B9AB2FB685A8502
:1021DC00FB681B685B6903F00403042B24D1FB68C8
:1021EC001B8D032B07D1FB681B681A68FB681B68E7
:1021FC0022F480621A60FB681B681A69FB685B6AD0
:10220C00D2B21A70FB685B6A5A1CFB685A62FB6894
:10221C001B8D013B9AB2FB681A85FB685B8D9BB2E8
:10222C00013B9AB2FB685A85FB681B8D002B7FF42F
:10223C0088AEFB68202283F83D20FB68002283F8DF
:10224C003E20FB68002283F83C20002300E00223A0
:10225C0018462837BD4680BD040001000C00002044
:10226C0089B5F81480B588B002AFF8607A603B602D
:10227C000B467B81FB68DB6A7B617B69082B06D094
:10228C007B69012B03D07B6913F5803F08D1FB6878
:10229C001B681A68FB681B6842F480721A600BE0BA
:1022AC00FB681B6B122B07D1FB681B681A68FB6859
:1022BC001B6842F480721A603B6800937B680022B2
:1022CC004FF00111F86800F01DF90346002B0DD0FA
:1022DC00FB681B681B6803F48073B3F5807F03D124
:1022EC00FB684FF400721A64032335E0FB681B692A
:1022FC00B3F5804F08D17B89DBB21A46FB681B68AB
:10230C0002F0FE021A611BE07B89DB11DBB203F0E9
:10231C000603DBB263F00F03DAB2FB681B681A61C9
:10232C003B687A680E49F86800F066F90346002BA2
:10233C0001D0012310E07B89DAB2FB681B681A61BB
:10234C003B687A680749F86800F056F90346002B99
:10235C0001D0012300E0002318461837BD4680BD8C
:10236C00080001000200010080B588B002AFF860DF
:10237C007A603B600B467B81FB68DB6A7B61FB68A8
:10238C001B681A68FB681B6842F480621A607B69E0
:10239C00082B06D07B69012B03D07B6913F5803F9A
:1023AC0008D1FB681B681A68FB681B6842F48072D2
:1023BC001A600BE0FB681B6B112B07D1FB681B68C9
:1023CC001A68FB681B6842F480721A603B680093C1
:1023DC007B6800224FF00111F86800F093F8034677
:1023EC00002B0DD0FB681B681B6803F48073B3F5DE
:1023FC00807F03D1FB684FF400721A64032379E0E9
:10240C00FB681B69B3F5804F08D17B89DBB243F0C5
:10241C000103DAB2FB681B681A615FE07B89DB1190
:10242C00DBB203F00603DBB263F00F03DAB2FB6836
:10243C001B681A613B687A683049F86800F0DCF870
:10244C000346002B01D0012354E07B89DAB2FB68F0
:10245C001B681A613B687A682949F86800F0CCF867
:10246C000346002B01D0012344E000233B61FB68B1
:10247C001B685B693B61FB681B689B693B613B6943
:10248C00FB681B681A68FB681B6842F480721A6050
:10249C003B6800937B6800224FF00111F86800F054
:1024AC0031F80346002B0DD0FB681B681B6803F446
:1024BC008073B3F5807F03D1FB684FF400721A640C
:1024CC00032317E07B89DB11DBB203F00603DBB2DD
:1024DC0063F00E03DAB2FB681B681A613B687A681A
:1024EC000749F86800F088F80346002B01D0012357
:1024FC0000E0002318461837BD4680BD08000100D7
:10250C000200010080B584B000AFF860B9603B6098
:10251C001346FB7148E03B68B3F1FF3F44D0FEF734
:10252C002DFF0246BB69D31A3A689A4202D33B6824
:10253C00002B39D1BB681B0CDBB2012B0DD1FB6816
:10254C001B685B69DA43BB6813409BB2002B0CBF62
:10255C0001230023DBB21A460CE0FB681B689B6965
:10256C00DA43BB6813409BB2002B0CBF0123002342
:10257C00DBB21A46FB799A4216D1FB6800221A6329
:10258C00FB68202283F83D20FB68002283F83E2064
:10259C00FB681B6C43F02002FB681A64FB6800228A
:1025AC0083F83C20012323E0BB681B0CDBB2012B1E
:1025BC000DD1FB681B685B69DA43BB6813409BB2A7
:1025CC00002B0CBF01230023DBB21A460CE0FB6886
:1025DC001B689B69DA43BB6813409BB2002B0CBF92
:1025EC0001230023DBB21A46FB799A4293D00023D5
:1025FC0018461037BD4680BD80B584B000AFF8607A
:10260C00B9607A603B6071E0FB681B685B6903F43E
:10261C008063B3F5806F23D1FB681B681A68FB6875
:10262C001B6842F400721A60FB681B686FF48062CE
:10263C005A61FB6800221A63FB68202283F83D2054
:10264C00FB68002283F83E20FB681B6C43F00402FD
:10265C00FB681A64FB68002283F83C20012367E0C6
:10266C007B68B3F1FF3F41D0FEF788FE02463B6822
:10267C00D31A7A689A4202D37B68002B36D1BB6896
:10268C001B0CDBB2012B0CD1FB681B685B69DA43BA
:10269C00BB6813409BB2002B14BF01230023DBB299
:1026AC000BE0FB681B689B69DA43BB6813409BB269
:1026BC00002B14BF01230023DBB2002B16D0FB68C8
:1026CC0000221A63FB68202283F83D20FB6800225D
:1026DC0083F83E20FB681B6C43F02002FB681A64F5
:1026EC00FB68002283F83C20012321E0BB681B0C13
:1026FC00DBB2012B0CD1FB681B685B69DA43BB684E
:10270C0013409BB2002B14BF01230023DBB20BE060
:10271C00FB681B689B69DA43BB6813409BB2002BB8
:10272C0014BF01230023DBB2002B7FF46DAF002319
:10273C0018461037BD4680BD80B584B000AFF86038
:10274C00B9607A6034E0F86800F0E3F80346002BD7
:10275C0001D0012334E0BB68B3F1FF3F28D0FEF772
:10276C000DFE02467B68D31ABA689A4202D3BB6844
:10277C00002B1DD1FB681B685B6903F08003802B69
:10278C0016D0FB6800221A63FB68202283F83D20D8
:10279C00FB68002283F83E20FB681B6C43F0200290
:1027AC00FB681A64FB68002283F83C20012307E0D5
:1027BC00FB681B685B6903F08003802BC3D100238B
:1027CC0018461037BD4680BD80B584B000AFF860A8
:1027DC00B9607A6034E0F86800F09BF80346002B8F
:1027EC0001D0012334E0BB68B3F1FF3F28D0FEF7E2
:1027FC00C5FD02467B68D31ABA689A4202D3BB68FD
:10280C00002B1DD1FB681B685B6903F00403042BD0
:10281C0016D0FB6800221A63FB68202283F83D2047
:10282C00FB68002283F83E20FB681B6C43F02002FF
:10283C00FB681A64FB68002283F83C20012307E044
:10284C00FB681B685B6903F00403042BC3D10023F2
:10285C0018461037BD4680BD80B584B000AFF86017
:10286C00B9607A6049E0FB681B685B6903F0100390
:10287C00102B19D1FB681B686FF010025A61FB68B2
:10288C0000221A63FB68202283F83D20FB6800229B
:10289C0083F83E20FB681A6CFB681A64FB68002204
:1028AC0083F83C20012330E0FEF768FD02467B688C
:1028BC00D31ABA689A4202D3BB68002B1DD1FB68AD
:1028CC001B685B6903F04003402B16D0FB680022A9
:1028DC001A63FB68202283F83D20FB68002283F8F2
:1028EC003E20FB681B6C43F02002FB681A64FB68FB
:1028FC00002283F83C20012307E0FB681B685B691E
:10290C0003F04003402BAED1002318461037BD46D0
:10291C0080BD80B483B000AF78607B681B685B6956
:10292C0003F48063B3F5806F1BD17B681B686FF475
:10293C0080625A617B6800221A637B68202283F8CC
:10294C003D207B68002283F83E207B681B6C43F0A3
:10295C0004027B681A647B68002283F83C20012304
:10296C0000E0002318460C37BD4680BC70470000C1
:10297C0080B586B000AF78607B68002B01D1012355
:10298C0072E27B681B6803F00103002B00F0878068
:10299C00924B5B6803F00C03042B0CD08F4B5B68E1
:1029AC0003F00C03082B12D18C4B5B6803F48033BF
:1029BC00B3F5803F0BD1894B1B6803F40033002B1C
:1029CC006CD07B685B68002B68D101234CE27B6880
:1029DC005B68B3F5803F06D1804B1B687F4A43F49C
:1029EC00803313602EE07B685B68002B0CD17B4B33
:1029FC001B687A4A23F480331360784B1B68774A40
:102A0C0023F4802313601DE07B685B68B3F5A02F73
:102A1C000CD1724B1B68714A43F4802313606F4BCB
:102A2C001B686E4A43F4803313600BE06B4B1B68DE
:102A3C006A4A23F480331360684B1B68674A23F49B
:102A4C00802313607B685B68002B13D0FEF796FC29
:102A5C00386108E0FEF792FC02463B69D31A642BFE
:102A6C0001D9032300E25D4B1B6803F40033002BF8
:102A7C00F0D014E0FEF782FC386108E0FEF77EFC33
:102A8C0002463B69D31A642B01D90323ECE1534B67
:102A9C001B6803F40033002BF0D100E000BF7B680F
:102AAC001B6803F00203002B63D04C4B5B6803F0F4
:102ABC000C03002B0BD0494B5B6803F00C03082B69
:102ACC001CD1464B5B6803F48033002B16D1434B6F
:102ADC001B6803F00203002B05D07B681B69012BDC
:102AEC0001D00123C0E13D4B1B6823F0F8027B6849
:102AFC005B69DB00394913430B603AE07B681B6967
:102B0C00002B20D0364B01221A60FEF737FC3861BF
:102B1C0008E0FEF733FC02463B69D31A022B01D9BD
:102B2C000323A1E12D4B1B6803F00203002BF0D013
:102B3C002A4B1B6823F0F8027B685B69DB00274992
:102B4C0013430B6015E0264B00221A60FEF716FCAF
:102B5C00386108E0FEF712FC02463B69D31A022BDF
:102B6C0001D9032380E11D4B1B6803F00203002BEA
:102B7C00F0D17B681B6803F00803002B3AD07B680C
:102B8C009B69002B19D0174B01221A60FEF7F6FB3C
:102B9C00386108E0FEF7F2FB02463B69D31A022BC0
:102BAC0001D9032360E10D4B5B6A03F00203002B98
:102BBC00F0D0012000F0BAFA1CE00A4B00221A6097
:102BCC00FEF7DCFB38610FE0FEF7D8FB02463B69F1
:102BDC00D31A022B08D9032346E100BF0010024090
:102BEC000000424280044242924B5B6A03F00203B3
:102BFC00002BE9D17B681B6803F00403002B00F069
:102C0C00A6800023FB758B4BDB6903F08053002BF4
:102C1C000DD1884BDB69874A43F08053D361854BD8
:102C2C00DB6903F08053BB60BB680123FB75824BEF
:102C3C001B6803F48073002B18D17F4B1B687E4AF2
:102C4C0043F480731360FEF799FB386108E0FEF7DC
:102C5C0095FB02463B69D31A642B01D9032303E18C
:102C6C00754B1B6803F48073002BF0D07B68DB681A
:102C7C00012B06D16F4B1B6A6E4A43F001031362A2
:102C8C002DE07B68DB68002B0CD16A4B1B6A694A10
:102C9C0023F001031362674B1B6A664A23F004039B
:102CAC0013621CE07B68DB68052B0CD1614B1B6A43
:102CBC00604A43F0040313625E4B1B6A5D4A43F0A7
:102CCC00010313620BE05B4B1B6A5A4A23F00103AE
:102CDC001362584B1B6A574A23F0040313627B6838
:102CEC00DB68002B15D0FEF749FB38610AE0FEF7D4
:102CFC0045FB02463B69D31A41F28832934201D913
:102D0C000323B1E04B4B1B6A03F00203002BEED004
:102D1C0014E0FEF733FB38610AE0FEF72FFB0246A6
:102D2C003B69D31A41F28832934201D903239BE0C9
:102D3C00404B1B6A03F00203002BEED1FB7D012BF1
:102D4C0005D13C4BDB693B4A23F08053D3617B6854
:102D5C00DB69002B00F08780364B5B6803F00C03BB
:102D6C00082B61D07B68DB69022B46D1334B0022E8
:102D7C001A60FEF703FB386108E0FEF7FFFA024623
:102D8C003B69D31A022B01D903236DE0294B1B6835
:102D9C0003F00073002BF0D17B681B6AB3F5803F06
:102DAC0008D1244B5B6823F400327B689B68214973
:102DBC0013434B601F4B5B6823F474127B68196AD6
:102DCC007B685B6A0B431B4913434B601B4B012213
:102DDC001A60FEF7D3FA386108E0FEF7CFFA024624
:102DEC003B69D31A022B01D903233DE0114B1B681D
:102DFC0003F00073002BF0D035E0104B00221A606A
:102E0C00FEF7BCFA386108E0FEF7B8FA02463B69F7
:102E1C00D31A022B01D9032326E0064B1B6803F0BF
:102E2C000073002BF0D11EE07B68DB69012B07D10E
:102E3C00012319E000100240007000406000424283
:102E4C000B4B5B68FB60FB6803F480327B681B6A8E
:102E5C009A4206D1FB6803F470127B685B6A9A4253
:102E6C0001D0012300E0002318461837BD4680BD71
:102E7C000010024080B584B000AF786039607B6888
:102E8C00002B01D10123D0E06A4B1B6803F0070330
:102E9C003A689A4210D9674B1B6823F007026549C0
:102EAC003B6813430B60634B1B6803F007033A68E2
:102EBC009A4201D00123B8E07B681B6803F002033F
:102ECC00002B20D07B681B6803F00403002B05D07B
:102EDC00594B5B68584A43F4E06353607B681B684A
:102EEC0003F00803002B05D0534B5B68524A43F4A4
:102EFC0060535360504B5B6823F0F0027B689B6817
:102F0C004D4913434B607B681B6803F00103002B96
:102F1C0040D07B685B68012B07D1474B1B6803F4DF
:102F2C000033002B15D101237FE07B685B68022BFB
:102F3C0007D1414B1B6803F00073002B09D101230F
:102F4C0073E03D4B1B6803F00203002B01D10123FE
:102F5C006BE0394B5B6823F003027B685B68364996
:102F6C0013434B60FEF70AFAF8600AE0FEF706FA24
:102F7C000246FB68D31A41F28832934201D90323EB
:102F8C0053E02D4B5B6803F00C027B685B689B0085
:102F9C009A42EBD1274B1B6803F007033A689A421D
:102FAC0010D2244B1B6823F0070222493B681343C1
:102FBC000B60204B1B6803F007033A689A4201D060
:102FCC00012332E07B681B6803F00403002B08D05C
:102FDC00194B5B6823F4E0627B68DB68164913438A
:102FEC004B607B681B6803F00803002B09D0124B65
:102FFC005B6823F460527B681B69DB000E4913434A
:10300C004B6000F021F802460B4B5B681B0903F088
:10301C000F030A49CB5C22FA03F3094A1360094BEC
:10302C001B681846FEF768F9002318461037BD4692
:10303C0080BD00BF0020024000100240B4400008D8
:10304C000C0000201000002080B487B000AF0023DB
:10305C00FB600023BB6000237B6100237B600023AB
:10306C003B611E4B5B68FB60FB6803F00C03042B9D
:10307C0002D0082B03D027E0194B3B6127E0FB68FB
:10308C009B0C03F00F03174AD35C7B60FB6803F4C3
:10309C008033002B10D0114B5B685B0C03F00103E9
:1030AC00114AD35CBB607B680D4A03FB02F2BB6820
:1030BC00B2FBF3F37B6104E07B680C4A02FB03F385
:1030CC007B617B693B6102E0054B3B6100BF3B6967
:1030DC0018461C37BD4680BC704700BF001002402C
:1030EC0000127A00CC400008DC40000800093D00CA
:1030FC0080B400AF024B1B681846BD4680BC7047BD
:10310C000C00002080B500AFFFF7F2FF0246054B24
:10311C005B681B0A03F007030349CB5C22FA03F339
:10312C00184680BD00100240C440000880B485B031
:10313C0000AF78600A4B1B680A4AA2FB03235B0AA8
:10314C007A6802FB03F3FB6000BFFB685A1EFA604F
:10315C00002BF9D100BF00BF1437BD4680BC7047AF
:10316C000C000020D34D621080B582B000AF7860A7
:10317C007B68002B01D1012341E07B6893F83D3043
:10318C00DBB2002B06D17B68002283F83C207868E8
:10319C00FDF7F2FF7B68022283F83D207B681A68FA
:1031AC007B6804331946104600F040F97B68012215
:1031BC0083F846207B68012283F83E207B6801223D
:1031CC0083F83F207B68012283F840207B68012232
:1031DC0083F841207B68012283F842207B6801221E
:1031EC0083F843207B68012283F844207B6801220A
:1031FC0083F845207B68012283F83D200023184684
:10320C000837BD4680BD000080B485B000AF786043
:10321C007B6893F83D30DBB2012B01D0012332E007
:10322C007B68022283F83D207B681B68184A934216
:10323C000ED07B681B68B3F1804F09D07B681B688C
:10324C00144A934204D07B681B68134A934211D1F1
:10325C007B681B689B6803F00703FB60FB68062B0D
:10326C0010D07B681B681A687B681B6842F00102EF
:10327C001A6007E07B681B681A687B681B6842F061
:10328C0001021A60002318461437BD4680BC7047F3
:10329C00002C0140000400400008004080B584B0C0
:1032AC0000AF786039600023FB737B6893F83C3087
:1032BC00012B01D10223B4E07B68012283F83C206E
:1032CC007B68022283F83D207B681B689B68BB608F
:1032DC00BB6823F07703BB60BB6823F47F43BB6000
:1032EC007B681B68BA689A603B681B68B3F5005F23
:1032FC003ED0B3F5005F00F28780B3F5805F00F03D
:10330C008680B3F5805F7FD8702B1AD0702B7BD85A
:10331C00602B50D0602B77D8502B3CD0502B73D8CF
:10332C00402B58D0402B6FD8302B64D0302B6BD81F
:10333C00202B60D0202B67D8002B5CD0102B5AD0C0
:10334C0062E07B6818683B6899683B685A683B6820
:10335C00DB6800F050F97B681B689B68BB60BB683E
:10336C0043F07703BB607B681B68BA689A604FE0D8
:10337C007B6818683B6899683B685A683B68DB68EF
:10338C0000F039F97B681B689A687B681B6842F40B
:10339C0080429A603CE07B6818683B6859683B68DF
:1033AC00DB681A4600F0B0F87B681B6850211846A1
:1033BC0000F007F92CE07B6818683B6859683B689B
:1033CC00DB681A4600F0CEF87B681B686021184653
:1033DC0000F0F7F81CE07B6818683B6859683B689C
:1033EC00DB681A4600F090F87B681B684021184691
:1033FC0000F0E7F80CE07B681A683B681B6819461C
:10340C00104600F0DEF803E00123FB7300E000BF80
:10341C007B68012283F83D207B68002283F83C20E6
:10342C00FB7B18461037BD4680BD000080B485B0CC
:10343C0000AF786039607B681B68FB607B682F4A43
:10344C0093420BD07B68B3F1804F07D07B682C4A3A
:10345C00934203D07B682B4A934208D1FB6823F03C
:10346C007003FB603B685B68FA681343FB607B6826
:10347C00224A93420BD07B68B3F1804F07D07B6814
:10348C001F4A934203D07B681E4A934208D1FB68C3
:10349C0023F44073FB603B68DB68FA681343FB6002
:1034AC00FB6823F080023B685B691343FB607B681D
:1034BC00FA681A603B689A687B68DA623B681A683B
:1034CC007B689A627B680D4A934203D13B681A6908
:1034DC007B681A637B6801225A617B681B6903F065
:1034EC000103002B05D07B681B6923F001027B686C
:1034FC001A6100BF1437BD4680BC7047002C0140D8
:10350C00000400400008004080B487B000AFF860B1
:10351C00B9607A60FB681B6A7B61FB681B6A23F0ED
:10352C000102FB681A62FB689B693B613B6923F0F3
:10353C00F0033B617B681B013A6913433B617B6978
:10354C0023F00A037B617A69BB6813437B61FB68D8
:10355C003A699A61FB687A691A6200BF1C37BD46EA
:10356C0080BC704780B487B000AFF860B9607A60F7
:10357C00FB681B6A7B61FB681B6A23F01002FB680B
:10358C001A62FB689B693B613B6923F470433B61A6
:10359C007B681B033A6913433B617B6923F0A003EF
:1035AC007B61BB681B017A6913437B61FB683A69D9
:1035BC009A61FB687A691A6200BF1C37BD4680BCF1
:1035CC00704780B485B000AF786039607B689B68C9
:1035DC00FB60FB6823F07003FB603A68FB681343E5
:1035EC0043F00703FB607B68FA689A6000BF1437EE
:1035FC00BD4680BC704780B487B000AFF860B9603E
:10360C007A603B60FB689B687B617B6923F47F433A
:10361C007B613B681A027B681A43BB6813437A6967
:10362C0013437B61FB687A699A6000BF1C37BD4607
:10363C0080BC704780B485B000AF786039607B681F
:10364C0093F83C30012B01D1022346E07B68012228
:10365C0083F83C207B68022283F83D207B681B6842
:10366C005B68FB607B681B689B68BB60FB6823F036
:10367C007003FB603B681B68FA681343FB607B6854
:10368C001B68FA685A607B681B68164A93420ED016
:10369C007B681B68B3F1804F09D07B681B68124AAA
:1036AC00934204D07B681B68104A93420CD1BB68D0
:1036BC0023F08003BB603B685B68BA681343BB6054
:1036CC007B681B68BA689A607B68012283F83D208E
:1036DC007B68002283F83C20002318461437BD4633
:1036EC0080BC7047002C01400004004000080040E2
:1036FC000EB46FF0004110B500249DB01FAB0290CA
:10370C000690079104910948094953F8042B059137
:10371C00006802A901931B9400F092F9029B1C70A3
:10372C001DB0BDE8104003B0704700BF180000206A
:10373C000802FFFF03460244934200D1704703F88E
:10374C00011BF9E7014B1868704700BF18000020F7
:10375C0070B500260C4D0D4C641BA410A64209D16B
:10376C0000F076FC00260A4D0A4C641BA410A642FD
:10377C0005D170BD55F8043B98470136EEE755F876
:10378C00043B98470136F2E7144100081441000845
:10379C0014410008184100087047704738B50546B9
:1037AC00002940D051F8043C0C1F002BB8BFE41882
:1037BC0000F0DEF81C4A136833B9636014602846C5
:1037CC00BDE8384000F0DAB8A34208D920682118C7
:1037DC008B4201BF19685B6809182160EDE71A4636
:1037EC005B680BB1A342FAD911685018A0420BD1F7
:1037FC0020680144501883421160E0D118685B685E
:10380C00084410605360DAE702D90C232B60D6E72A
:10381C00206821188B4201BF19685B680918216068
:10382C0063605460CBE738BDE002002070B50F4EEA
:10383C000C463168054611B900F0A8FB30602146F2
:10384C00284600F0A3FB431C03D14FF0FF34204665
:10385C0070BDC41C24F00304A042F8D0211A2846E1
:10386C0000F094FB0130F2D1EFE700BFDC02002046
:10387C002DE9F843CD1C25F0030508350C2D38BF78
:10388C000C25002D064601DBA94204D90C2333601C
:10389C000020BDE8F883DFF8D48000F069F8D8F890
:1038AC0000301C4644BB29463046FFF7BFFF431C83
:1038BC00044658D1D8F800402746002F43D1002C9D
:1038CC004BD023683946304604EB030900F05EFB0D
:1038DC00814542D1216830466D1A2946FFF7A6FF73
:1038EC0001303AD023682B442360D8F800305A6852
:1038FC0062BBC8F800700FE02268521B20D40B2A60
:10390C0017D96119A342256018BF5960636808BFB5
:10391C00C8F8001062514B60304600F02FF804F1EB
:10392C000B00231D20F00700C21A1CBF1B1AA3504A
:10393C00AFE76268A3420CBFC8F800205A60EBE7FF
:10394C0023466468AEE73C467F68B6E71A465B6878
:10395C00A342FBD100235360DEE70C2330463360D7
:10396C0000F00CF894E70560D6E700BFE0020020F9
:10397C000148FFF711BF00BFD80200200148FFF734
:10398C000CBF00BFD80200202DE9F0471F468E68FF
:10399C008246BE420C4690460B682DD8B1F90C20DD
:1039AC0012F4906F26D06569096905EB4505A3EB08
:1039BC00010905EBD5757B1C4B446D109D4238BF3E
:1039CC001D46530527D52946FFF752FF064660B31F
:1039DC004A46216900F0F8FAA38923F4906343F076
:1039EC008003A38126614E4426603E466561A5EBAB
:1039FC000905A560BE4200D93E46324641462068C4
:103A0C0000F0AAFA0020A3689B1BA3602368334430
:103A1C002360BDE8F0872A4600F0E4FA0646002849
:103A2C00E0D150462169FFF7B9FE0C23CAF80030EB
:103A3C00A3894FF0FF3043F04003A381E9E7000076
:103A4C002DE9F04F98468B8907461B060D46144608
:103A5C009DB010D50B6973B94021FFF709FF2860A1
:103A6C00286130B90C233B604FF0FF301DB0BDE82E
:103A7C00F08F40236B610023099320238DF82930AC
:103A8C0030234FF00109CDF80C80DFF898818DF8C8
:103A9C002A3023469A4613F8012B0AB1252AF9D16C
:103AAC00BAEB040B0BD05B46224629463846FFF78F
:103ABC006BFF013000F0A780099A5A4409929AF8DA
:103ACC000030002B00F09F8000234FF0FF32CDE937
:103ADC0005230AF1010A049307938DF853301A93C6
:103AEC005446052214F8011B4E4800F05FFA049A64
:103AFC00D8B9D00644BF20238DF85330110744BFEA
:103B0C002B238DF853309AF800302A2B15D05446BD
:103B1C0000204FF00A0C079A214611F8013B303B6C
:103B2C00092B4BD9B0B1079214E0A0EB080309FAAA
:103B3C0003F31343A2460493D2E7039B191D1B689E
:103B4C000391002BBBBF5B4242F002020793079329
:103B5C00B8BF049223782E2B0AD163782A2B32D14A
:103B6C00039B02341A1D1B68039243EAE37305930B
:103B7C00DFF8B4A003225046217800F017FA38B1D0
:103B8C004022049BA0EB0A008240134301340493AF
:103B9C0014F8011B062225488DF8281000F006FAAF
:103BAC00002836D0224B1BBB039B073323F00703A3
:103BBC0008330393099B334409936AE70C460120AD
:103BCC000CFB0232A8E700234FF00A0C1946013413
:103BDC000593204610F8012B303A092A03D9002B03
:103BEC00C6D00591C4E7044601230CFB0121F0E784
:103BFC0003AB00932A4638460E4B04A9AFF3008062
:103C0C00421C0646D6D1AB895B063FF52DAF099811
:103C1C002CE703AB00932A463846064B04A900F068
:103C2C007DF8EDE7DE400008E4400008E8400008BD
:103C3C0000000000953900082DE9F047164698461B
:103C4C008A680B6907469342B8BF1346336091F8F4
:103C5C0043200C46DDF820900AB101333360236811
:103C6C00990642BF336802333360256815F00605A8
:103C7C0006D104F1190AE36832689B1AAB422BDCBB
:103C8C0094F843302268003B18BF0123920630D4CD
:103C9C004146384604F14302C847013023D023681B
:103CAC00226903F00603042B14BF002533684FF080
:103CBC00000608BFE56804F11A0408BFED1A54F8B1
:103CCC00123C08BF25EAE5759342C4BF9B1AED1858
:103CDC00B5421AD1002008E001235246414638462D
:103CEC00C847013003D14FF0FF30BDE8F0870135F4
:103CFC00C1E73020E11881F843005A1C94F84510B4
:103D0C002244023382F84310C2E701232246414683
:103D1C003846C8470130E6D00136D9E72DE9FF47D0
:103D2C000F7E9146782F80460C469A460C9E01F1E8
:103D3C00430207D8622F0AD8002F00F0D180582FE9
:103D4C0000F0B88004F1420684F842703AE0A7F122
:103D5C006303152BF6D801A151F823F0C13D0008DF
:103D6C00D53D0008513D0008513D0008513D00086B
:103D7C00513D0008D53D0008513D0008513D00085B
:103D8C00513D0008513D0008D33E0008FF3D00089E
:103D9C008D3E0008513D0008513D0008F53E0008DD
:103DAC00513D0008FF3D0008513D0008513D000801
:103DBC00953E000833681A1D1B68326004F14206F8
:103DCC0084F8423001239CE033682068191D31606F
:103DDC00060601D51D6803E04506FBD5B3F9005076
:103DEC00002D03DA2D236D4284F843300A23584802
:103DFC0011E021683368080653F8045B02D44906C5
:103E0C0048BFADB26F2F336014BF0A23082350484C
:103E1C00002184F843106668002EA66005DB21683B
:103E2C002E4321F0040121604BD01646B5FBF3F173
:103E3C0003FB1157C75D06F8017D2F46BB420D46AB
:103E4C00F4D9082B0BD12368DF0708D523696168E7
:103E5C009942DEBF302306F8013C06F1FF36921B77
:103E6C0022614B4621464046CDF800A003AAFFF73D
:103E7C00E3FE01304AD14FF0FF3004B0BDE8F087CB
:103E8C00236843F0200323607827324884F8457078
:103E9C00236831681F0651F8045B02D45F0648BFE3
:103EAC00ADB23160D90744BF43F0200323601DB18C
:103EBC001023ADE72648E9E7236823F020032360AD
:103ECC00F6E71646BDE733682568181D6169306052
:103EDC002E061B6801D5196002E06806FBD5198017
:103EEC00002316462361BCE7336800211A1D32609B
:103EFC001E686268304600F059F808B1801B60609B
:103F0C0063682361002384F84330AAE732464946AC
:103F1C0040462369D0470130ADD023689B0713D4AA
:103F2C00E068039B9842B8BF1846A6E701233246C7
:103F3C0049464046D04701309DD00135E36803998E
:103F4C005B1AAB42F2DCEBE7002504F11906F5E74E
:103F5C00EF40000800410008884210B501EB020454
:103F6C0002D98442234607D8431EA14208D011F837
:103F7C00012B03F8012FF8E7014602448A4200D1D5
:103F8C0010BD13F8014D02F8014DF7E738B50023C9
:103F9C00054D044608462B60FDF736F9431C02D14B
:103FAC002B6803B1236038BDD4020020034610B542
:103FBC00C9B202449342184601D1002003E00478B0
:103FCC0001338C42F6D110BD0A44914200F1FF330B
:103FDC0000D1704710B511F8014B914203F8014F15
:103FEC00F9D110BD2DE9F041074614460D4621B913
:103FFC001146BDE8F041FFF73BBC2AB9FFF7CEFBF9
:10400C0025462846BDE8F08100F01AF884420646A1
:10401C0002D8B4EB500FF4D821463846FFF728FCF1
:10402C00804608B94546ECE7B4422246294628BFEB
:10403C003246FFF7C9FF29463846FFF7AFFBF1E7D9
:10404C0051F8043C181F002BBCBF0B58C01870470C
:10405C00F8B500BFF8BC08BC9E467047F8B500BF69
:08406C00F8BC08BC9E46704739
:1040740053544D333220493243204C434400000012
:104084004C6962726172792044656D6F00000000B2
:10409400253032643A253032643A253032640000E7
:1040A400423A25336420543A2533646D6C00000091
:1040B40000000000000000000102030406070809D4
:1040C40000000000010203040203040506070809B6
:1040D4000A0B0C0D0E0F10100102232D302B2000A3
:1040E400686C4C00656667454647003031323334AE
:1040F400353637383941424344454600303132334E
:10410400343536373839616263646566000000000F
:04411400310100086D
:044118000D0100088D
:10411C00F17E770000D8D6470092254700127A002E
:10412C0010000000010000001C0000200000000036
:10413C009C010020040200206C0200200000000002
:10414C000000000000000000000000000000000063
:10415C000000000000000000000000000000000053
:10416C000000000000000000000000000000000043
:08417C0000000000000000003B
:040000050800128D50
:00000001FF
